:100000000C942A000C943C000C943C000C943C0092
:100010000C943C000C943C000C943C000C943C0070
:100020000C943C000C943C000C949B040C943C00FD
:100030000C943C000C943C000C943C000C943C0050
:100040000C943C000C943C000C943C000C943C0040
:100050000C943C0011241FBECFE5D8E0DEBFCDBF1D
:1000600010E0A0E6B0E001C01D92A437B107E1F7AF
:100070000E94E9040C9439050C940000DF93CF939F
:10008000CDB7DEB727970FB6F894DEBF0FBECDBF52
:1000900089836A834B838B81882309F074C08981AB
:1000A000282F30E03F832E838E819F818130910500
:1000B00059F12E813F81223031052CF48E819F81B0
:1000C000009769F0D2C02E813F812230310589F13D
:1000D0008E819F818330910509F440C0C6C0AAE398
:1000E000B0E0EAE3F0E08081482F8A81282F30E0F9
:1000F00081E090E0022E02C0880F991F0A94E2F777
:10010000809584238C93B1C0A7E3B0E0E7E3F0E0EF
:100110008081482F8A81282F30E081E090E0022EF4
:1001200002C0880F991F0A94E2F7809584238C936C
:100130009CC0A4E3B0E0E4E3F0E08081482F8A8132
:10014000282F30E081E090E0022E02C0880F991F36
:100150000A94E2F7809584238C9387C0A1E3B0E0F2
:10016000E1E3F0E08081482F8A81282F30E081E0B0
:1001700090E0022E02C0880F991F0A94E2F7809542
:1001800084238C9372C08B81813009F06EC0898189
:10019000282F30E03D832C838C819D818130910517
:1001A00049F12C813D81223031052CF48C819D81D7
:1001B000009761F05AC02C813D812230310571F1E8
:1001C0008C819D8183309105E9F14FC0AAE3B0E0B5
:1001D000EAE3F0E08081482F8A81282F30E081E037
:1001E00090E0022E02C0880F991F0A94E2F7842B38
:1001F0008C933BC0A7E3B0E0E7E3F0E08081482FB9
:100200008A81282F30E081E090E0022E02C0880F22
:10021000991F0A94E2F7842B8C9327C0A4E3B0E0E3
:10022000E4E3F0E08081482F8A81282F30E081E0EC
:1002300090E0022E02C0880F991F0A94E2F7842BE7
:100240008C9313C0A1E3B0E0E1E3F0E08081482F9C
:100250008A81282F30E081E090E0022E02C0880FD2
:10026000991F0A94E2F7842B8C9327960FB6F89483
:10027000DEBF0FBECDBFCF91DF910895DF93CF9347
:10028000CDB7DEB727970FB6F894DEBF0FBECDBF50
:1002900089836A834B838B81882309F074C08981A9
:1002A000282F30E03F832E838E819F8181309105FE
:1002B00059F12E813F81223031052CF48E819F81AE
:1002C000009769F0D2C02E813F812230310589F13B
:1002D0008E819F818330910509F440C0C6C0ABE395
:1002E000B0E0EBE3F0E08081482F8A81282F30E0F6
:1002F00081E090E0022E02C0880F991F0A94E2F775
:10030000809584238C93B1C0A8E3B0E0E8E3F0E0EB
:100310008081482F8A81282F30E081E090E0022EF2
:1003200002C0880F991F0A94E2F7809584238C936A
:100330009CC0A5E3B0E0E5E3F0E08081482F8A812E
:10034000282F30E081E090E0022E02C0880F991F34
:100350000A94E2F7809584238C9387C0A2E3B0E0EF
:10036000E2E3F0E08081482F8A81282F30E081E0AD
:1003700090E0022E02C0880F991F0A94E2F7809540
:1003800084238C9372C08B81813009F06EC0898187
:10039000282F30E03D832C838C819D818130910515
:1003A00049F12C813D81223031052CF48C819D81D5
:1003B000009761F05AC02C813D812230310571F1E6
:1003C0008C819D8183309105E9F14FC0ABE3B0E0B2
:1003D000EBE3F0E08081482F8A81282F30E081E034
:1003E00090E0022E02C0880F991F0A94E2F7842B36
:1003F0008C933BC0A8E3B0E0E8E3F0E08081482FB5
:100400008A81282F30E081E090E0022E02C0880F20
:10041000991F0A94E2F7842B8C9327C0A5E3B0E0E0
:10042000E5E3F0E08081482F8A81282F30E081E0E9
:1004300090E0022E02C0880F991F0A94E2F7842BE5
:100440008C9313C0A2E3B0E0E2E3F0E08081482F98
:100450008A81282F30E081E090E0022E02C0880FD0
:10046000991F0A94E2F7842B8C9327960FB6F89481
:10047000DEBF0FBECDBFCF91DF910895DF93CF9345
:1004800000D000D0CDB7DEB789836A838981282F59
:1004900030E03C832B838B819C8181309105D1F0AE
:1004A0002B813C81223031052CF48B819C8100977B
:1004B00061F01EC02B813C812230310581F08B819F
:1004C0009C818330910581F013C0EAE3F0E08A81DA
:1004D00080830EC0E7E3F0E08A81808309C0E4E313
:1004E000F0E08A81808304C0E1E3F0E08A818083C8
:1004F0000F900F900F900F90CF91DF910895DF93A1
:10050000CF9300D000D0CDB7DEB789836A838981CD
:10051000282F30E03C832B838B819C818130910597
:10052000D1F02B813C81223031052CF48B819C81D0
:10053000009761F01EC02B813C812230310581F093
:100540008B819C818330910581F013C0EBE3F0E057
:100550008A8180830EC0E8E3F0E08A81808309C04D
:10056000E5E3F0E08A81808304C0E2E3F0E08A8181
:1005700080830F900F900F900F90CF91DF9108958F
:10058000DF93CF9300D000D0CDB7DEB789836A83E5
:100590008981282F30E03C832B838B819C818130A3
:1005A000910549F12B813C81223031052CF48B815E
:1005B0009C81009761F05AC02B813C81223031052B
:1005C00071F18B819C8183309105E9F14FC0ABE3E0
:1005D000B0E0EBE3F0E08081482F8A81282F30E003
:1005E00081E090E0022E02C0880F991F0A94E2F782
:1005F00084278C933BC0A8E3B0E0E8E3F0E080817F
:10060000482F8A81282F30E081E090E0022E02C03E
:10061000880F991F0A94E2F784278C9327C0A5E3DB
:10062000B0E0E5E3F0E08081482F8A81282F30E0B8
:1006300081E090E0022E02C0880F991F0A94E2F731
:1006400084278C9313C0A2E3B0E0E2E3F0E0808162
:10065000482F8A81282F30E081E090E0022E02C0EE
:10066000880F991F0A94E2F784278C930F900F90BC
:100670000F900F90CF91DF910895DF93CF9300D02B
:1006800000D000D0CDB7DEB789836A838981282F57
:1006900030E03D832C834C815D814130510549F12F
:1006A0008C819D818230910534F42C813D8121150E
:1006B000310561F057C04C815D814230510561F1D7
:1006C0008C819D8183309105D1F14CC0E9E3F0E04C
:1006D0008081282F30E08A81882F90E0A90102C014
:1006E000559547958A95E2F7CA01582F51705B835B
:1006F0003AC0E6E3F0E08081282F30E08A81882F3D
:1007000090E0A90102C0559547958A95E2F7CA0184
:10071000582F51705B8327C0E3E3F0E08081282FDE
:1007200030E08A81882F90E0A90102C05595479555
:100730008A95E2F7CA01582F51705B8314C0E0E339
:10074000F0E08081282F30E08A81882F90E0A90195
:1007500002C0559547958A95E2F7CA01582F517006
:100760005B8301C002C08B818E838E8126960FB67B
:10077000F894DEBF0FBECDBFCF91DF910895DF9318
:10078000CF9300D0CDB7DEB79A83898389819A81D0
:100790000E944D040E945F040F900F90CF91DF9153
:1007A0000895DF93CF9300D000D00F92CDB7DEB77E
:1007B0009A8389837C836B834D838D81882F90E01E
:1007C000880F991F880F991FFC01E05AFF4F8B81FA
:1007D0009C81918380838D81882F90E0880F991F61
:1007E0000196880F991FFC01E05AFF4F89819A8179
:1007F000918380830F900F900F900F900F90CF9167
:10080000DF910895DF93CF930F92CDB7DEB780913C
:100810007000909171000196909371008093700028
:10082000198228C040917000509171008981882FF1
:1008300090E0880F991F880F991FFC01E05AFF4F25
:1008400020813181CA01B9010E942505009779F400
:100850008981882F90E0880F991F0196880F991F32
:10086000FC01E05AFF4F0190F081E02D099589814C
:100870008F5F898389818430A8F280917000909184
:10088000710026EF8831920721F4109271001092C6
:1008900070000F90CF91DF910895DF93CF9300D038
:1008A000CDB7DEB79A83898389819A81909373004B
:1008B000809372000F900F90CF91DF910895DF9396
:1008C000CF93CDB7DEB7A3E5B0E0E3E5F0E08081FC
:1008D0008F7B8C93A3E5B0E0E3E5F0E08081886056
:1008E0008C93AFE5B0E0EFE5F0E0808180688C9319
:1008F000A9E5B0E0E9E5F0E0808182608C93ECE569
:10090000F0E08DE78083A3E5B0E0E3E5F0E08081EF
:1009100081608C93A3E5B0E0E3E5F0E08081826044
:100920008C93A3E5B0E0E3E5F0E080818B7F8C93CE
:10093000CF91DF9108951F920F920FB60F9211245D
:100940002F933F934F935F936F937F938F939F93D7
:10095000AF93BF93EF93FF93DF93CF93CDB7DEB702
:10096000E0917200F09173000995CF91DF91FF91B2
:10097000EF91BF91AF919F918F917F916F915F9117
:100980004F913F912F910F900FBE0F901F90189590
:10099000DF93CF93CDB7DEB780E060E00E94C00266
:1009A000CF91DF910895DF93CF93CDB7DEB782E08B
:1009B00060E00E94C002CF91DF910895DF93CF9352
:1009C000CDB7DEB783E060E00E94C002CF91DF9137
:1009D0000895DF93CF93CDB7DEB780E060E041E0CC
:1009E0000E943E0080E060E041E00E943E0182E023
:1009F00060E041E00E943E0082E060E041E00E9451
:100A00003E0183E060E041E00E943E0083E060E060
:100A100041E00E943E0188EC94E068EE73E040E023
:100A20000E94D10383ED94E060ED77E041E00E9405
:100A3000D1038EED94E060E679E042E00E94D103BC
:100A400082E094E00E94BF03FFCFAA1BBB1B51E1D1
:100A500007C0AA1FBB1FA617B70710F0A61BB70B2E
:100A6000881F991F5A95A9F780959095BC01CD01D3
:060A70000895F894FFCF89
:00000001FF
